:10000000020003D2B730B20830B30930B40A80F529
:1000100012001C221200352212004F227820790093
:1000200012002FFA0912002FFB116909D8F222E9F8
:100030009000C0932278267900120049FA09120034
:1000400049FB12006909D8F122E990010093227856
:10005000207900120063FA09120063FB120069099B
:10006000D8F122E990014C9322EA23C0E090008E5F
:1000700093FCA3D0E093FD12007B22AE05B2B7AF94
:10008000047A03DAFEDFFADEF4DBF0D2B722EB31DA
:10009000D137BB3EB0429D4A8C5384587662696F1B
:1000A0005D7C58834F9346A542AF3BC434DC2FF7A9
:1000B0002CFF27FF23FF21FF1DFF1AFF17FFFF0162
:1000C0000A040B040C040A040A040B040C040A04BA
:1000D0000C040D040E080C040D040E080E020F0291
:1000E0000E020D020C040A040E020F020E020D0293
:1000F0000C040A040A0407040A080A0407040A088C
:10010000030403040704070408040804070818028A
:100110000604060405040504040404040308180284
:10012000070407040604060405040504040818026D
:10013000030403040704070408040804070406046E
:100140000604050405040404040403080704070462
:1001500009040A020C040C040A060C040C040D0425
:100160000E040F040F040C060F040F040D040C0200
:100170000A040D040C040A02070409020A020C0412
:0C0180000D020C020A0409040706070423
:00000001FF
