:1000000002000375900030B20830B32530B466802A
:10001000F57590FF30B31A30B45B12009530B31110
:1000200030B45275900012009530B30530B446805C
:10003000E075907F1200637590BF1200637590DFCA
:100040001200637590EF1200637590F712006375EC
:1000500090FB1200637590FD1200637590FE120014
:100060006380CE787379C8D9FED8FA30B2A330B3A2
:10007000C030B4012275907E11637590BD11637517
:1000800090DB11637590E711637590DB11637590D8
:0C009000BD116380E07A141163DAFC22D9
:00000001FF
