:100000000200037590C0D2B5C2B51200697590F9AF
:10001000D2B5C2B51200697590A4D2B5C2B51200AE
:10002000697590B0D2B5C2B5120069759099D2B514
:10003000C2B5120069759092D2B5C2B51200697549
:100040009082D2B5C2B51200697590F8D2B5C2B52A
:10005000120069759080D2B5C2B512006975909092
:10006000D2B5C2B5120069809A7590C01200A6750B
:1000700090F91200A67590A41200A67590B0120017
:10008000A67590991200A67590921200A67590829E
:100090001200A67590F81200A67590801200A67541
:1000A00090901200A6227A64792E7864D8FED9FA4C
:0300B000DAF6225B
:00000001FF
