:0300000002005D9E
:10000300BB02030200324003BB0403020026400389
:0600130002001902003E8C
:0D001900E92582F582EA3583F583E4932220
:0C0026008883E92582F8E6C8C583C8225B
:0C003200E92582F582EA3583F583E0229F
:0C003E008883E92582F8E2C8C583C82247
:10004A00EFB40A077F0D12004A7F0A3099FDC29960
:03005A008F992259
:10005D00758110E4787FF6D8FD7589207588407517
:0B006D009852758DE875A0FF02026537
:100078000A0D2048454C4C4F20574F524C442121E3
:1000880021000A0D20594F5520484156452050520D
:100098004553534544205357312E2E2E000A0D2028
:1000A800594F5520484156452050524553534544D1
:1000B800205357322E2E2E000A0D20594F55204816
:1000C8004156452050524553534544205357332EEB
:0300D8002E2E00C9
:0E00DB00C0D03098FDC298AF997E00D0D022E0
:1000E9008B088A09890A750B00AB08AA09A90AAC09
:1000F9000B050BEC7583008C82120003F50C60096B
:0D010900AF0C7E0012004A80E0E4FEFF22F1
:080116003099FDC2998F992276
:0D011E007B057A0079781200E9E4FEFF22EB
:10012B003098071200DB8F0F8003750FFFE4FEFF83
:01013B0022A1
:05013C00E50FB43103E2
:070141007590F9E4FEFF22B6
:05014800E50FB43203D5
:07014D007590A4E4FEFF22FF
:05015400E50FB43303C8
:070159007590B0E4FEFF22E7
:05016000E50FB43403BB
:07016500759099E4FEFF22F2
:05016C00E50FB43503AE
:07017100759092E4FEFF22ED
:05017800E50FB43603A1
:07017D00759082E4FEFF22F1
:05018400E50FB4370394
:070189007590F8E4FEFF226F
:05019000E50FB4380387
:07019500759080E4FEFF22DB
:05019C00E50FB439037A
:0701A100759090E4FEFF22BF
:0501A800E50FB4300377
:0701AD007590C0E4FEFF2283
:0501B400E50FB461033A
:0801B900759088E50FB44103C5
:0701C100759088E4FEFF22A7
:0501C800E50FB4620325
:0801CD00759083E50FB44203B5
:0701D500759083E4FEFF2298
:0501DC00E50FB4630310
:0801E1007590C6E50FB443035D
:0701E9007590C6E4FEFF2241
:0501F000E50FB46403FB
:0801F5007590A1E50FB444036D
:0701FD007590A1E4FEFF2252
:05020400E50FB46503E5
:08020900759086E50FB4450372
:07021100759086E4FEFF2258
:05021800E50FB46603D0
:08021D0075908EE50FB4460355
:0702250075908EE4FEFF223C
:03022C0020B20CF1
:10022F0030B2FD7B057A00798A1200E9E4FEFF22E5
:03023F0020B30CDD
:1002420030B3FD7B057A0079A51200E9E4FEFF22B6
:0302520020B40CC9
:1002550030B4FD7B057A0079C01200E9E4FEFF2287
:10026500E4F50DF50E759852758920758DFDD28EC4
:05027500C2B512011EDC
:10027A0012012B12013C12014812015412016012A0
:10028A00016C12017812018412019012019C120170
:10029A00A81201B41201C81201DC1201F012020400
:0E02AA0012021812022C12023F12025280C2DF
:00000001FF
