:03000000020030CB
:03000B00020042AE
:10003000C2AF758130D2A9758901D28DD2B7D2AF46
:0F00400080FE7B027DFD7E451200AE7B017DFDC3
:0E004F007EB41200AE7B017DFC7E8F1200AEEF
:10005D001200DD7B037DFD7EF41200AE7B027DFE82
:0E006D007E471200AE7B017DFD7E6C1200AE60
:10007B001200DD7B057DFF7E161200AE7B057DFF3A
:10008B007E161200AE7B037DFE7E471200AE7B0315
:10009B007DFE7E771200AE7B037DFE7E471200AEA7
:0F00AB000200E6EBF879FFC28CEDF58CEEF58ADA
:1000BA00D28C308DFDB2B7C28DD9EDD8E91200CB02
:1000CA0022780279FFD9FED8FA22780279FFD9FE7E
:0C00DA00D8FA22780579FFD9FED8FA2266
:00000001FF
